S02500005343415241424C4443436F6E74726F6C426F6172644669726D776172652E737265637A
S214400000F872002065014000E9014000E901400027
S214400010E9014000E9014000E9014000000000001D
S214400020000000000000000000000000E901400061
S214400030E901400000000000E9014000E9014000FD
S214400040E9014000E9014000E9014000E9014000C3
S214400050E9014000E9014000E9014000E9014000B3
S214400060E9014000E9014000E9014000E9014000A3
S214400070E9014000E9014000E9014000E901400093
S214400080E9014000E9014000E9014000E901400083
S214400090E9014000E9014000E9014000E901400073
S2144000A0E9014000E9014000E9014000E901400063
S2144000B0E9014000E9014000E9014000E901400053
S2144000C0E9014000E9014000E9014000E901400043
S2144000D0E9014000E9014000E9014000E901400033
S2144000E0E9014000000000000000000000000000A1
S2144000F0000000000000000010B5054C237833B91E
S214400100044B13B10448AFF300800123237010BDA5
S2144001103404002000000000982B40000C4B43B1F4
S2144001200C480D4910B5AFF300800C48036823B95E
S21440013010BD0A48036833B97047094B002BF7D007
S214400140BDE810401847064B002BF5D0184700BFB7
S21440015000000000982B400038040020982B4000F8
S2144001600000000080B582B000AF164B7B60164B97
S2144001703B607A683B689A420CD007E03B681A1DA1
S2144001803A607A68111D796012681A603B680F4AB7
S2144001909342F3D30E4B3B6004E03B681A1D3A6033
S2144001A000221A603B680B4A9342F6D30A4B7B60A8
S2144001B00A4A7B6823F07F039360094B9847094BB4
S2144001C09847FEE7982B40000000002034040020AB
S2144001D034040020F44200200000400000ED00E01F
S2144001E025284000B902400080B400AFFEE700007A
S2144001F080B400AF284B4FF4A0621A60274B1B6AAE
S21440020003F08073002B09D1244B254A1A6200BFA5
S214400210224B9B6E03F00103002BF9D01F4B214A63
S2144002201A6200BF1D4B9B6E03F48033002BF9D03F
S2144002301A4A1A4B1B6B23F0030343F00103136364
S21440024000BF164B9B6E03F00803002BF9D0134BF0
S214400250154A9A6200BF114B9B6E03F00203002BB7
S214400260F9D00E4B11221A6300BF0C4B9B6E03F065
S2144002700803002BF9D0094B12221A6300BF074B24
S2144002809B6E03F00803002BF9D0084B084A1A600F
S21440029000BFBD4680BC7047000A0E4000040E40BA
S2144002A00908370009083701013F132000000020E5
S2144002B0000E27070000000090B5A3B000AF174B14
S2144002C09847174A164B1B6843F45C1343F00103E8
S2144002D0136000BF134B1B6803F00103002BF9D0DB
S2144002E00F4A0F4B1B6843F09B7343F480331360F5
S2144002F000BF0C4B1B6803F48033002BF9D015E08D
S214400300094B1B689BB22C2B10D8054A044B1B6824
S21440031023F08073136001236BE200BFF1014000BD
S21440032020040E4068040E4024040E408F4B1B6889
S21440033003F48033002BE3D08D498D4B1A688D4BE8
S21440034013430B6000BF8C4B1B6803F00203002B6B
S214400350F9D08A4A894B1B68136000BF864B1B68DE
S21440036003F00803002BF9D0844A844B1B6843F003
S2144003700203136000BF804B1B6803F00803002B8A
S214400380F9D07F4B7F4A1A607F4A7F4B1B6843F405
S214400390785313607D4A7D4B1B6843F00703136018
S2144003A07B4A7B4B1B6843F007031360794A794BC3
S2144003B01B6843F007031360774A774B1B6843F08C
S2144003C007031360754B764A1A60764A754B1B686E
S2144003D043F4803343F003031360734A724B1B6845
S2144003E043F4803343F003031360674A664B1B684D
S2144003F043F4C00313606D4A6C4B1B6823F4004300
S21440040013606B4A6A4B1B6823F400431360674AC9
S214400410664B1B6843F005031360654A644B1B68D4
S21440042043F005031360614A604B1B6843F48073D6
S21440043013605F4A5E4B1B6843F4807313605B4AED
S2144004405A4B1B6843F480631360594A584B1B68E9
S21440045043F480631360574A564B1B6843F480133B
S21440046043F498531360544A534B1B6843F00103BC
S2144004701360524A514B1B6843F001031360504BC4
S214400480504A1A60504A504B1B6843F080731360C2
S2144004904E4A4E4B1B6843F0807313604C4A4C4B9D
S2144004A01B6843F0010313604A4A4A4B1B6843F0FB
S2144004B002031360344A344B1B6843F040431360D6
S2144004C0454A454B1B6843F0005343F400231360F2
S2144004D02D4A2D4B1B6843F4002313603F4A3F4B85
S2144004E01B6823F0010313603D4A3D4B1B6843F0F5
S2144004F0010313603B4A3B4B1B6843F08003136089
S2144005000023FB670023BB674FF000037B67002395
S2144005103B670023FB660023BB66334B7B66334B4F
S2144005203B664FF000037B624FF00003BB62002344
S214400530FB654FF00003FB614FF000033B622C4B22
S214400540BB652C4B7B654FF000037B614FF000038F
S214400550BB6100233B650023FB640023BB64002390
S2144005607B640023C7F8843073E000BF24040E4049
S21440057028040E40013F090068040E4030040E4037
S214400580E40E0E40004F495010040E40000E0E4040
S214400590140E0E40600E0E40900E0E40E4040E40C8
S2144005A000434D50040E0E40700E0E4004000940AD
S2144005B044000940C400094000000940400009408A
S2144005C0E4000B400143444108000B4008400B4008
S2144005D014000B4014400B4004000B4004800840BD
S2144005E000800840308008409A9919406666E63F89
S2144005F03333333F6666A63F834BD7F8840098472D
S2144006000246824B10469847814C4FF00002814B81
S214400610A04703460C46184621467F4C78A3D3E9AC
S2144006200023A04703460C46184621467B4B984776
S2144006300A4601467A4B0846114698470146794A8B
S214400640D7F8843042F82310D7F884300133C7F8FF
S2144006508430D7F88430B3F5FA6FCDD30023C7F88B
S21440066080302CE0684BD7F8800098470246674BAE
S21440067010469847664C4FF00002664BA04703462C
S2144006800C4618462146644C5DA3D3E90023A04798
S21440069003460C4618462146634B98470A46014691
S2144006A05F4B0846114698470146604AD7F8803067
S2144006B042F82310D7F880300133C7F88030D7F897
S2144006C08030B3F5FA6FCDD3594B4FF4E0021A6041
S2144006D0584B4FF0E0621A6000233B6002E03B68F4
S2144006E001333B603B6841F293129342F7D9514B3A
S2144006F04FF4E0021A604F4B4FF0E0621A604E4AE9
S2144007004D4B1B6813604D4B00221A604C4A4C4BB5
S2144007101B6843F0100313604A4B1B684A4B4B4A16
S2144007201A604FF080424FF080431B6843F001034D
S2144007301360474B07221A60464A464B1B6843F4F1
S21440074080731360444A444B1B6843F480731360C1
S214400750424A424B1B6843F480731360404B4FF44D
S21440076096521A603F4B4FF496521A603E4B4FF4E7
S21440077096521A603D4B00221A603D4B4FF416626B
S2144007801A603C4B4FF416621A603B4A3A4B1B6861
S21440079043F007031360394A384B1B6843F00103A4
S2144007A01360374A364B1B6843F080431360354A24
S2144007B0344B1B6843F4C0731360334A324B1B6898
S2144007C043F080431360314A304B1B6843F4C07398
S2144007D013602F4B1B6803F08043FB642D4B1B6854
S2144007E003F08003BB642B4B1B6803F480737B646D
S2144007F0EFE718468C37BD4690BD00BFAFF300808C
S214400800FCDEA63FFB211940752740003D1F4000F7
S2144008103922400000409F40E51F40002D0940001F
S214400820692540005004002099084000902300208D
S21440083030140E4034140E4070140E4004140E4013
S21440084000050E4010040E40E4000040004D575096
S21440085004000040000200402002004040020040E9
S21440086010020040300200405002004008020040A3
S2144008702802004048020040200000402800004077
S21440088000140E40000E0E4014140E40140E0E407F
S2144008903C140E403C0E0E4030B5224A21F0004338
S2144008A0934287B01BDD204A934205DD02460B4645
S2144008B001F0E4F907B030BD02AA00F07DF800F080
S2144008C00303012B1AD0022B0FD01BB30124DDE902
S2144008D00423DDE90201009400F0FEFFEAE700226F
S2144008E0002300F08DFA07B030BDDDE90423DDE9D2
S2144008F0020100F085FA01F10041DBE7DDE904453D
S2144009000093DDE9020122462B4600F0E5FF01F1A7
S2144009100041CFE7DDE90423DDE9020100F070FA8B
S214400920C8E700BFFB21E93FFFFFEF7F30B51F4A16
S21440093021F00043934287B01BDD1D4A934205DDFC
S21440094002460B4601F09AF907B030BD02AA00F005
S21440095033F800F003000128DDE904231AD002280A
S2144009600FD0E0B1DDE9020100F04AFA01F10041A2
S214400970EAE7002300930022002300F0ADFF07B013
S21440098030BD0124DDE90201009400F0A5FF01F12D
S2144009900041D9E7DDE9020100F032FAD4E701244C
S2144009A0DDE90201009400F097FFCDE7FB21E93F27
S2144009B0FFFFEF7F000000002DE9F04F9A4E21F038
S2144009C00047B74291B040F38E809246974A97428E
S2144009D00C4626DC00298AA3D3E9002340F3B481E1
S2144009E001F04CF9924B9F4204460D4600F0908031
S2144009F085A3D3E9002301F041F902460B46CAE934
S214400A0000232046294601F039F97FA3D3E9002385
S214400A1001F034F90125CAE90201284611B0BDE8C3
S214400A20F08F844A974240F39080834A974265DC31
S214400A303D15A5F21645A7EB055319461F46064633
S214400A4001F06AFD01F068FA8046894602460B4688
S214400A5030463946CDE90A8901F010F90022774B35
S214400A6001F0C0FA8946804601F056FD01F054FA7E
S214400A7002460B4606460F4640464946CDE90C67B9
S214400A8001F0FCF800226D4B01F0ACFA0022002386
S214400A90CDE90E0101F00EFD002800F07381002321
S214400AA030463946002201F005FD002814BF0123D8
S214400AB00223634A019202212A4600910AA851461F
S214400AC000F0C2FA002C054614DADAF80420DAF808
S214400AD00C3002F1004203F100434542CAF80420BC
S214400AE0CAF80C3006E0C2E9000100250024C2E93D
S214400AF002450025284611B0BDE8F08F02460B4659
S214400B0001F0BCF80025CAE90201CAE90001F1E794
S214400B103FA3D3E9002301F0B1F83FA3D3E9002374
S214400B200D46044601F0AAF802460B46CAE90023E1
S214400B302946204601F0A2F837A3D3E9002301F066
S214400B409DF80125CAE90201D4E700F07BFF34A3F3
S214400B50D3E900238046894601F044FA0022394B07
S214400B6001F08EF801F0D8FC054601F0D5F924A333
S214400B70D3E90023CDE9040101F034FA02460B46DE
S214400B804046494601F07AF81FA3D3E90023804641
S214400B908946DDE9040101F025FA1F2DCDE9020161
S214400BA054DC294B6A1E53F822309F424ED00246F0
S214400BB00B464046494601F061F802460B46CAE9F4
S214400BC0002383460E465A4633464046494601F081
S214400BD055F8DDE9022301F051F8002C02460B4699
S214400BE0CAE9022386DA5B4606F1004601F1004177
S214400BF08AE84800CAF80C10CAF808006D4279E73F
S214400C0000004054FB21F93F3163621A61B4D03D85
S214400C100000601A61B4D03D7370032E8A19A33B5E
S214400C2083C8C96D305FE43FFB21E93F7BD9024072
S214400C30FB21F93FFB213941FFFFEF7F0000704168
S214400C40142A40000000E03F94294000DDE90223DA
S214400C504046494601F012F83A15C1F30A53D31AF2
S214400C60102B83460E460992CAE90001ABDD58A315
S214400C70D3E90023DDE9040101F0B4F906460F4646
S214400C8002460B464046494600F0F8FFCDE90601CD
S214400C9002460B464046494600F0F0FF32463B4689
S214400CA000F0ECFF4CA3D3E9002306460F46DDE9EF
S214400CB0040101F097F932463B4600F0DFFFDDE9DC
S214400CC00689CDE9020102460B464046494600F0F9
S214400CD0D5FF0B46C1F30A570E460999CF1B02466D
S214400CE0312F8346CAE900236CDD3DA3D3E90023B8
S214400CF0DDE9040101F076F906460F4602460B464A
S214400D0040464946CDE9068900F0B8FF02460B4604
S214400D1080468946DDE9060100F0B0FF32463B4694
S214400D2000F0ACFF30A3D3E9002306460F46DDE9CA
S214400D30040101F057F932463B4600F09FFF024659
S214400D400B46CDE9022334E700F09AFF2A4B9F4238
S214400D5004460D4618D026A3D3E9002300F090FFA2
S214400D6002460B46CAE900232946204600F086FF85
S214400D701FA3D3E9002300F083FF4FF0FF35CAE9F5
S214400D800201B7E6032394E611A3D3E9002300F05B
S214400D9077FF11A3D3E900230D46044600F070FF09
S214400DA002460B46CAE900232946204600F066FF65
S214400DB009A3D3E9002300F063FF4FF0FF35CAE9EB
S214400DC0020197E6DDE90689FDE600BFAFF3008045
S214400DD00000601A61B4D03D7370032E8A19A33B9D
S214400DE00000002E8A19A33BC14920259A837B39EF
S214400DF03163621A61B4D03DFB21F93F0000000028
S214400E002DE9F04F21F00046B6F1795F85B00C46EB
S214400E1092469B4605466BDA01F07EFB002800F0C2
S214400E20E8802A4623462846214601F0DBF874A38C
S214400E30D3E900238046894601F0D4F872A3D3E96B
S214400E40002300F01DFF42464B4601F0CBF870A34E
S214400E50D3E9002300F012FF42464B4601F0C2F8A9
S214400E606DA3D3E9002300F00BFF42464B4601F04A
S214400E70B9F86BA3D3E9002300F000FF42464B4687
S214400E8001F0B0F868A3D3E9002300F0F9FE42462B
S214400E904B4601F0A7F8CDE900010022644B4046DE
S214400EA0494601F09FF8DDE9002306460F464046D6
S214400EB0494601F097F85246804689465B462846A2
S214400EC0214601F08FF802460B464046494600F060
S214400ED0D5FE02460B463046394600F0CFFE024667
S214400EE00B460020534900F0C9FE05B0BDE8F08F20
S214400EF002460B4601F076F841A3D3E9002380462C
S214400F00894601F06FF840A3D3E9002300F0B8FE0D
S214400F1042464B4601F066F83DA3D3E9002300F075
S214400F20ADFE42464B4601F05DF83BA3D3E90023B5
S214400F3000F0A6FE42464B4601F054F838A3D3E9EB
S214400F40002300F09BFE42464B4601F04BF836A38A
S214400F50D3E9002300F094FE4B46424601F042F8A7
S214400F60354B9E42CDE9000197DD344B9E424FF013
S214400F70000238DCA6F5001300202E4916461F4610
S214400F8000F07CFECDE902010022294B404649464E
S214400F9001F028F832463B4600F070FEDDE90023BB
S214400FA006460F464046494601F01CF852468046E3
S214400FB089465B462846214601F014F802460B4611
S214400FC04046494600F05AFE02460B4630463946F1
S214400FD000F054FE02460B46DDE9020100F04EFEEC
S214400FE005B0BDE8F08F164B164FCDE9022300261C
S214400FF0CAE71049002005B0BDE8F08FAFF3008087
S214401000D43888BEE9FAA8BDC4B1B4BD9EEE213E30
S214401010AD529C804F7E923E9015CB19A001FA3E71
S2144010207751C1166CC1563F4C5555555555A53F41
S2144010300000E03F0000F03F3233D33F0000E93F7E
S2144010400000E73F0000D23F2DE9F04FADF5197D97
S2144010509C4CA29E9C4D54F8264005942646D41E91
S21440106085FB0475E417C4EBA50424EAE4741D4626
S2144010700893631CA3EB8303013D02EBC303049375
S2144010802B4609940295651BF418039006911AD4D2
S2144010902C4401340DF1780800260027DDF88C92A8
S2144010A008E059F8250000F037FF0135A542E8E989
S2144010B0020108D0002DF4DA013530463946A54203
S2144010C0E8E90201F6D1059B002B2EDB089B4FEA90
S2144010D0C309039BA9F10808984420AB9944059B93
S2144010E070AA02EBC30B0DF5DC7A029B002BC0F214
S2144010F00F83039B4D46A3F108040026002775E99D
S2144011000223F4E9020100F06DFF02460B4630462A
S214401110394600F0B5FD444506460F46EFD1EAE9AC
S2144011200267DA4509F10809DFD10598089A009068
S21440113000F18043013B9B000CAC191F234402F195
S21440114000520B93039B013A21440A9103EBC20BD6
S214401150009A98A901EBC203002A53E92845134692
S2144011602BDD01EBC308A8F1A8080DF12C090DF5FD
S214401170DC7A0022554B2046294600F033FF01F02A
S214401180CBF900F0C9FE0022514B06460F4600F050
S21440119029FF02460B462046294600F06FFD01F027
S2144011A0BBF978E8022349F8040F3946304600F088
S2144011B067FDD04504460D46DBD1DDF8109020464D
S2144011C029464A4600F0D0FC00224FF07F530446A2
S2144011D00D4600F007FF00F03BFC00223D4B00F0C0
S2144011E001FF02460B462046294600F047FD0D46C5
S2144011F0044601F091F9804600F08EFE0B4602460A
S2144012002946204600F03AFD4B46002B06460F4640
S21440121040F3F780009A0CA9013AC9F1180351F837
S214401220225045FA03F101FA03F30CA8EB1A40F8F2
S2144012302230C9F11705884443FA05F5002D63DDD1
S214401240009B002B08F1010840F381820C9C002C87
S21440125000F01883012000230CAAC4F1807442F8E1
S2144012602340009A824219DD0CAA0CAC52F820109A
S2144012706FF07F42511A44F8201000990233994289
S2144012800CDD1046009A0CA901EB830301EB8201AA
S2144012901A68821A43F8042B8B42F9D1049B002B20
S2144012A01ADD049B012B4FF0010440F05882009B4E
S2144012B05A1E0CAB0CA953F82230C3F3160341F860
S2144012C0223058E2602B4000ABAAAA2A0000703EAB
S2144012D00000704100002040022D15D132463B46AA
S2144012E00020974900F0CAFC06460F46049A9449E7
S2144012F0002000F039FC02460B463046394600F0E6
S214401300BDFC022506460F460022002330463946DD
S21440131001F0D0F8002800F05282009A059B501E3B
S21440132083420FDC02F18043013B0CAA0B9C02EB8C
S2144013308303002253F80419A34242EA0102F9D17A
S214401340002A6FD1059B0CAA013B52F82330002B94
S21440135040F033820A9A012352F8041901330029D7
S214401360FAD0009AD31802F1010A9A4507933DDC59
S214401370009B0899099A0B4407990AEB020899467C
S21440138020AB08F1804803EBC9098B18A39A08F1F3
S214401390FF3802EB880870AA02EBCA0AA39A02EB4F
S2144013A08303009358F8040F00F0B6FD029B002B11
S2144013B0E9E802011DDB039B4D46A3F10804002625
S2144013C0002775E90223F4E9020100F00BFE02460D
S2144013D00B463046394600F053FC5C4506460F4601
S2144013E0EFD1009B9845EAE80267DBD1079B009364
S2144013F0AEE6009B002600279845EAE80267D1D172
S214401400F4E706D1009B0CAA013B52F82350ED1599
S21440141014E700224B4B01F06BF8002840F0828125
S214401420054671E70CA9029551F820300499CDF88D
S2144014301C8018390246009004916BB900F1804335
S214401440013B0CA800EB830353F80409013A183912
S2144014500028F9D000920491049A3949002000F0FF
S21440146083FB009B002B04460D46C0F20382DA0045
S21440147070A901EB020B04920CAA02EB8306DFF87C
S214401480C8900BF1080704364FF0000856F8040DD4
S21440149000F042FD22462B4600F0A4FD4B4667E98D
S2144014A0020142462046294600F09CFD0CAB9E4277
S2144014B004460D46EAD10DF5907ACDF80CA0DDF83D
S2144014C014A04FF00009BAF1000FC0F23D81DFF8DA
S2144014D07C805D4618A1D1E9000100260027002443
S2144014E003E04C4510DCF8E80201F5E8022300F082
S2144014F079FD02460B463046394600F0C1FB0134C2
S214401500A24506460F46ECDA039B03EBC903ABF154
S214401510080BC3E900676EAB5B4509F10109D2D100
S214401520A29BDDF80CA0032B00F28B80DFE813F0C3
S214401530D10090009000100000000040FB21F93FD1
S2144015400000F03F0000E03F0000703E282B4000C7
S214401550009B002B40F3A481049B0AEB0308D8E9C8
S2144015600067D34658E9029A32463B4648465146BB
S21440157000F086FB04460D4602460B46484651465A
S21440158000F07CFB32463B4600F07AFBC8E900019F
S21440159068E90245C34526462F46E3D1009B012B0A
S2144015A0DA4640F37D81049B5B44D3E90067984666
S2144015B099460DF5947B59E9023432461846214641
S2144015C03B46CDE9000100F05BFB04460D46024673
S2144015D00B46DDE9000100F051FB32463B4600F089
S2144015E04FFBC9E9000169E90245CB4526462F462F
S2144015F0E1D1002308F108081D464CAC18462946A0
S21440160078E9022300F03CFB444503460D46F5D1FD
S214401610029A002A00F02081DAF80440DAF80C201A
S214401620069FDAF80010DAF808003B6105F100453D
S21440163004F1004402F100427D617C60FA6039604A
S214401640B860079B03F007000DF5197DBDE8F08FE5
S214401650049C00260834544433463046194674E900
S214401660022300F00DFB544506460B46F5D1029A80
S21440167030461946002A00F0DA80069803F1004406
S214401680324644600660DAE9000100F0F7FA0B469D
S2144016900099002902460EDD012410461946FAE953
S2144016A0022300F0EDFA0B4600990134A1420246AF
S2144016B0F3DA029909B103F100431946069B104636
S2144016C0C3E90201079B03F007000DF5197DBDE84D
S2144016D0F08F049C002208345444134610461946A2
S2144016E074E9022300F0CCFAA24502460B46F5D137
S2144016F0029909B103F100431946069B1046C3E917
S2144017000001079B03F007000DF5197DBDE8F08F3B
S21440171000260027EAE90267DA4509F108097FF45E
S214401720E4AC02E5009B002B08F10108C8BF022587
S2144017303FF78CAD32463B460020634900F09EFAA8
S214401740022506460F46DFE500260027DCE6049B1A
S214401750002B26DD0024049B012B3FF4A8AD022B72
S21440176009D1009B5A1E0CAB0CA953F82230C3F388
S214401770150341F82230022D7FF4C6AD32463B4673
S2144017800020514900F07AFA06460F46002C3FF4F6
S214401790BBADABE500990133994278D1049B002B51
S2144017A0D9DC022D7FF4B0AD32463B460020464998
S2144017B000F064FA06460F46A6E50123D1E5394611
S2144017C0049F02957A423046CDF81C8000F0CCF952
S2144017D000223E4B04460D4600F08AFE002862D0AA
S2144017E000223B4B2046294600F0FCFB00F094FECE
S2144017F0064600F091FB0022344B00F0F3FB024615
S2144018000B462046294600F039FA00F085FE00993E
S2144018100B4601331A4600933B46183304930B4657
S2144018200CA941F82300134641F8236014E6069BB2
S2144018303246C3E900010B46DAE9000100F01EFA21
S2144018400B460099002902463FF726AF1946069BED
S2144018501046C3E9020135E718462946DAE900236F
S214401860DAE90245069FC7E90401C7E90023C7E94C
S2144018700245E6E6A29B032B3FF6E3AEDFE803F025
S214401880211C1C0E009B012B88DD0CAA012352F85C
S214401890044F002C3FF47EAF581CDDE40DF5907AE3
S2144018A000231D46B4E62946204600F035FE009A41
S2144018B00CA941F82200CFE5002633460DF5907A74
S2144018C0D5E60022134613E70000F03F00007041C3
S2144018D00000703E000000002DE9F04F21F0004669
S2144018E0B6F1795F85B00C4690469946054604DACF
S2144018F000F012FE002800F085802A46234628463F
S214401900214600F06FFB06460F4602460B46284629
S214401910214600F067FB3EA3D3E9002382468B4670
S2144019203046394600F05EFB3BA3D3E9002300F087
S214401930A5F932463B4600F055FB39A3D3E90023D0
S21440194000F09EF932463B4600F04CFB36A3D3E906
S214401950002300F093F932463B4600F043FB34A3A5
S214401960D3E9002300F08CF90E9BCDE900019BB330
S2144019700022334B4046494600F034FBDDE9002365
S214401980CDE902015046594600F02CFB02460B4674
S214401990DDE9020100F072F932463B4600F022FBD8
S2144019A042464B4600F06AF923A3D3E90023064695
S2144019B00F465046594600F015FB02460B46304649
S2144019C0394600F05DF902460B462846214600F0AF
S2144019D055F905B0BDE8F08F02460B46304639460D
S2144019E000F000FB14A3D3E9002300F047F9524669
S2144019F05B4600F0F7FA2A46234600F041F905B068
S214401A00BDE8F08F2846214605B0BDE8F08F00BF00
S214401A107CD5CF5A3AD9E53DEB9C2B8AE6E55A3E33
S214401A207DFEB157E31DC73ED561C119A0012A3FCF
S214401A30A6F810111111813F495555555555C53FCA
S214401A400000E03F21F00041704700BF000000006A
S214401A50C1F30A522DE9F843A2F2FF36132E0B4685
S214401A600D460446884607461DDC002E40DB3C4AB1
S214401A7042FA06F901EA09020243864618D036A31E
S214401A80D3E9002300F0FCF80022002300F03AFDE2
S214401A9020B1002D42DB28EA090500273C462946AE
S214401AA02046BDE8F883332E06DDB6F5806F2FD08E
S214401AB019462046BDE8F883A2F213424FF0FF399C
S214401AC029FA02F910EA090FF2D023A3D3E900233A
S214401AD000F0D6F80022002300F014FD0028DDD0E8
S214401AE0002D21DB454627EA09073C462946D7E72D
S214401AF019A3D3E9002300F0C3F80022002300F026
S214401B0001FD0028CAD0002D19DB00273D46C5E759
S214401B1002460B4600F0B4F80446CAE74FF480137A
S214401B2043FA06F6B044B6E7142E10D00123C6F1A9
S214401B30340603FA06F6371928BF9844D2E725F04C
S214401B400042084B224318BF1D460027A6E705F172
S214401B500108C7E7AFF300809C7500883CE4377EF9
S214401B60FFFF0F000000F0BFF8B5C1F30A56044669
S214401B700D460B4617460EBB21F0004303438646F0
S214401B8025D00022344B00F02DFA344A97420446C2
S214401B900D460B462ADBC1F30A56363E3E4440F21B
S214401BA0FE72964228DC002E12DD23F0FF4323F41B
S214401BB0E00343EA065520462946F8BD40F2FF7248
S214401BC09642EBD102460B4600F05AF8F8BDF8BDF7
S214401BD016F1350F1DDA4CF250339F4222462B4603
S214401BE025DC19A1D1E9000100F03CF816A3D3E9A1
S214401BF0002300F0F7F9F8BD22462B4614A1D1E9A0
S214401C00000100F02FF812A3D3E9002300F0EAF910
S214401C10F8BD23F0FF4323F4E003363643EA065587
S214401C202046294600220E4B00F0DCF9F8BD08A1FC
S214401C30D1E9000100F016F805A3D3E9002300F02F
S214401C40D1F9F8BDAFF3008059F3F8C21F6EA50175
S214401C509C7500883CE4377E00005043B03CFFFF54
S214401C600000903C03F0004321F0004242EA0301AA
S214401C70704700BF81F0004102E000BF83F00043A0
S214401C8030B54FEA41044FEA430594EA050F08BFD2
S214401C9090EA020F1FBF54EA000C55EA020C7FEA96
S214401CA0645C7FEA655C00F0E2804FEA5454D4EB13
S214401CB05555B8BF6D420CDD2C4480EA020281EADD
S214401CC0030382EA000083EA010180EA020281EA15
S214401CD00303362D88BF30BD11F0004F4FEA013167
S214401CE04FF4801C4CEA113102D0404261EB410176
S214401CF013F0004F4FEA03334CEA133302D05242FC
S214401D0063EB430394EA050F00F0A780A4F10104B7
S214401D10D5F1200E0DDB02FA0EFC22FA05F28018F1
S214401D2041F1000103FA0EF2801843FA05F35941D7
S214401D300EE0A5F120050EF1200E012A03FA0EFC56
S214401D4028BF4CF0020C43FA05F3C01851EBE37180
S214401D5001F0004507D54FF0000EDCF1000C7EEB9D
S214401D6000006EEB0101B1F5801F1BD3B1F5001FDB
S214401D700CD349085FEA30004FEA3C0C04F10104FA
S214401D804FEA445212F5800F80F09A80BCF1004F23
S214401D9008BF5FEA500C50F1000041EB045141EAA5
S214401DA0050130BD5FEA4C0C404141EB010111F4A6
S214401DB0801FA4F10104E9D191F0000F04BF014651
S214401DC00020B1FA81F308BF2033A3F10B03B3F12F
S214401DD020020CDA0C3208DD02F1140CC2F10C02BF
S214401DE001FA0CF021FA02F10CE002F11402D8BF1D
S214401DF0C2F1200C01FA02F120FA0CFCDCBF41EAE9
S214401E000C019040E41AA2BF01EB0451294330BDB7
S214401E106FEA04041F3C1CDA0C340EDC04F1140494
S214401E20C4F1200220FA04F001FA02F340EA03006B
S214401E3021FA04F345EA030130BDC4F10C04C4F1B1
S214401E40200220FA02F001FA04F340EA0300294691
S214401E5030BD21FA04F0294630BD94F0000F83F4DB
S214401E60801306BF81F480110134013D4EE77FEABE
S214401E70645C18BF7FEA655C29D094EA050F08BF0A
S214401E8090EA020F05D054EA000C04BF19461046EB
S214401E9030BD91EA030F1EBF0021002030BD5FEA2F
S214401EA0545C05D14000494128BF41F0004130BD57
S214401EB014F580043CBF01F5801130BD01F00045AB
S214401EC045F0FE4141F470014FF0000030BD7FEA1E
S214401ED0645C1ABF194610467FEA655C1CBF0B4619
S214401EE0024650EA013406BF52EA033591EA030F30
S214401EF041F4002130BD00BF90F0000F04BF002128
S214401F00704730B54FF4806404F132044FF000055A
S214401F104FF0000150E700BF90F0000F04BF0021D3
S214401F20704730B54FF4806404F1320410F0004539
S214401F3048BF40424FF000013EE700BF42004FEA34
S214401F40E2014FEA31014FEA02701FBF12F07F43B1
S214401F5093F07F4F81F06051704792F0000F14BFAE
S214401F6093F07F4F704730B54FF4607401F00045F2
S214401F7021F0004120E700BF50EA010208BF704749
S214401F8030B54FF000050AE050EA010208BF70473E
S214401F9030B511F0004502D5404261EB41014FF4A7
S214401FA0806404F132045FEA915C3FF4DCAE4FF0AB
S214401FB003025FEADC0C18BF03325FEADC0C18BF92
S214401FC0033202EBDC02C2F1200300FA03FC20FAE3
S214401FD002F001FA03FE40EA0E0021FA02F1144430
S214401FE0C1E600BF70B54FF0FF0C4CF4E06C1CEA45
S214401FF011541DBF1CEA135594EA0C0F95EA0C0FBA
S21440200000F0DEF82C4481EA030621EA4C5123EA2C
S2144020104C5350EA013518BF52EA033541F480115B
S21440202043F4801338D0A0FB02CE4FF00005E1FB0E
S21440203002E506F00042E0FB03E54FF00006E1FB58
S21440204003569CF0000F18BF4EF0010EA4F1FF049B
S214402050B6F5007F64F5407404D25FEA4E0E6D41DB
S21440206046EB060642EAC62141EA55514FEAC520EC
S21440207040EA5E504FEACE2EB4F1FD0C88BFBCF568
S214402080E06F1ED8BEF1004F08BF5FEA500E50F119
S214402090000041EB045170BD06F0004646EA0101DF
S2144020A040EA020081EA0301B4EB5C04C2BFD4EB11
S2144020B00C0541EA045170BD41F480114FF0000E0A
S2144020C0013C00F3AB8014F1360FDEBF002001F078
S2144020D0004170BDC4F10004203C35DA0C341BDCF2
S2144020E004F11404C4F1200500FA05F320FA04F0C4
S2144020F001FA05F240EA020001F0004221F00041F8
S21440210010EBD37021FA04F642EB06015EEA430E6A
S21440211008BF20EAD37070BDC4F10C04C4F120059A
S21440212000FA04F320FA05F001FA04F240EA02004D
S21440213001F0004110EBD37041F100015EEA430E1E
S21440214008BF20EAD37070BDC4F1200500FA05F23E
S2144021504EEA020E20FA04F301FA05F243EA0203BD
S21440216021FA04F001F0004121FA04F220EA0200CC
S21440217000EBD3705EEA430E08BF20EAD37070BD12
S21440218094F0000F0FD101F00046400041EB0101F2
S21440219011F4801F08BF013CF7D041EA060195F0D4
S2144021A0000F18BF704703F00046520043EB03038E
S2144021B013F4801F08BF013DF7D043EA060370477B
S2144021C094EA0C0F0CEA135518BF95EA0C0F0CD086
S2144021D050EA410618BF52EA4306D1D181EA0301CC
S2144021E001F000414FF0000070BD50EA410606BFC6
S2144021F01046194652EA430619D094EA0C0F02D10B
S21440220050EA013613D195EA0C0F05D152EA03364F
S2144022101CBF104619460AD181EA030101F000416D
S21440222041F0FE4141F470014FF0000070BD41F0B6
S214402230FE4141F4780170BD70B54FF0FF0C4CF490
S214402240E06C1CEA11541DBF1CEA135594EA0C0FAF
S21440225095EA0C0F00F0A7F8A4EB050481EA030EFC
S21440226052EA03354FEA013100F088804FEA0333E3
S2144022704FF0805545EA131343EA12634FEA0222B1
S21440228045EA111545EA10654FEA00260EF0004172
S2144022909D4208BF964244F1FD0404F5407402D2C4
S2144022A05B084FEA3202B61A65EB03055B084FEA55
S2144022B032024FF480104FF4002CB6EB020E75EB52
S2144022C0030E22BFB61A754640EA0C005B084FEA7A
S2144022D03202B6EB020E75EB030E22BFB61A7546F7
S2144022E040EA5C005B084FEA3202B6EB020E75EB42
S2144022F0030E22BFB61A754640EA9C005B084FEABA
S2144023003202B6EB020E75EB030E22BFB61A7546C6
S21440231040EADC0055EA060E18D04FEA051545EAB5
S21440232016754FEA06164FEAC30343EA52734FEA5E
S214402330C2025FEA1C1CC0D111F4801F0BD141EAD7
S21440234000014FF000004FF0004CB6E711F4801F3C
S21440235004BF01430020B4F1FD0C88BFBCF5E06F1C
S2144023603FF6AFAEB5EB030C04BFB6EB020C5FEA2C
S214402370500C50F1000041EB045170BD0EF0004E81
S2144023804EEA113114EB5C04C2BFD4EB0C0541EAB3
S214402390045170BD41F480114FF0000E013C90E6B0
S2144023A045EA060E8DE60CEA135594EA0C0F08BF74
S2144023B095EA0C0F3FF43BAF94EA0C0F0AD150EA73
S2144023C001347FF434AF95EA0C0F7FF425AF104606
S2144023D019462CE795EA0C0F06D152EA03353FF42E
S2144023E0FDAE1046194622E750EA410618BF52EAAB
S2144023F043067FF4C5AE50EA41047FF40DAF52EA7F
S21440240043057FF4EBAE12E74FF0FF3C06E000BF1B
S2144024104FF0010C02E000BF4FF0010C4DF804CD28
S2144024204FEA410C7FEA6C5C4FEA430C18BF7FEAE8
S2144024306C5C1BD001B050EA410C0CBF52EA430C16
S21440244091EA030F02BF90EA020F0020704710F196
S214402450000F91EA030F58BF994208BF90422CBF25
S214402460D8176FEAE37040F0010070474FEA410C1E
S2144024707FEA6C5C02D150EA013C07D14FEA430C3C
S2144024807FEA6C5CD6D152EA033CD3D05DF8040BAD
S214402490704700BF8446104662468C4619466346DF
S2144024A000E000BF01B5FFF7B7FF002848BF10F1B6
S2144024B0000F01BD4DF808EDFFF7F4FF0CBF0120FB
S2144024C000205DF808FB00BF4DF808EDFFF7EAFF77
S2144024D034BF012000205DF808FB00BF4DF808ED32
S2144024E0FFF7E0FF94BF012000205DF808FB00BF27
S2144024F04DF808EDFFF7CEFF94BF012000205DF8B1
S21440250008FB00BF4DF808EDFFF7C4FF34BF0120BD
S21440251000205DF808FB00BF4FEA410212F50012AA
S21440252015D211D56FF47873B3EB625212D94FEAD5
S214402530C12343F0004343EA505311F0004F23FABF
S21440254002F018BF404270474FF00000704750EA14
S214402550013005D111F0004008BF6FF000407047D1
S2144025604FF00000704700BF4FEA4102B2F1E0432F
S21440257024BFB3F5001CDCF1FE5C0DD901F0004C25
S2144025804FEAC0024CEA5070B2F1004F40EB830075
S21440259008BF20F00100704711F0804F21D113F1A1
S2144025A03872BCBF01F00040704741F480114FEADA
S2144025B05252C2F11802C2F1200C10FA0CF320FA63
S2144025C002F018BF40F001004FEAC1234FEAD32380
S2144025D003FA0CFC40EA0C0023FA02F34FEA4303EA
S2144025E0CCE77FEA625307D150EA01331EBF4FF073
S2144025F0FE4040F44000704701F0004040F0FE408E
S21440260040F40000704700BF80F0004002E000BF8A
S21440261081F0004142001FBF5FEA410392EA030F88
S2144026207FEA226C7FEA236C6AD04FEA1262D2EBD2
S2144026301363C1BFD218414048404140B8BF5B42D7
S214402640192B88BF704710F0004F40F4000020F070
S2144026507F4018BF404211F0004F41F4000121F086
S2144026607F4118BF494292EA030F3FD0A2F10102D0
S21440267041FA03FC10EB0C00C3F1200301FA03F10E
S21440268000F0004302D5494260EB4000B0F5000F31
S21440269013D3B0F1807F06D340084FEA310102F1F0
S2144026A00102FE2A51D2B1F1004F40EBC25008BFA2
S2144026B020F0010040EA03007047490040EB00006C
S2144026C010F4000FA2F10102EDD1B0FA80FCACF19B
S2144026D0080CB2EB0C0200FA0CF0AABF00EBC2509A
S2144026E052421843BCBFD0401843704792F0000F88
S2144026F081F4000106BF80F400000132013BB5E7DB
S2144027004FEA41037FEA226C18BF7FEA236C21D050
S21440271092EA030F04D092F0000F08BF08467047B5
S21440272090EA010F1CBF0020704712F07F4F04D183
S214402730400028BF40F00040704712F100723CBF96
S21440274000F50000704700F0004343F0FE4040F4C0
S214402750000070477FEA226216BF08467FEA23637E
S2144027600146420206BF5FEA412390EA010F40F469
S214402770800070474FF0000304E000BF10F00043B5
S21440278048BF40425FEA000C08BF704743F096439C
S21440279001464FF000001CE050EA010208BF7047B7
S2144027A04FF000030AE000BF50EA010208BF70473E
S2144027B011F0004302D5404261EB41015FEA010C53
S2144027C002BF84460146002043F0B64308BFA3F14B
S2144027D08053A3F50003BCFA8CF2083AA3EBC2532D
S2144027E010DB01FA02FC634400FA02FCC2F120024C
S2144027F0BCF1004F20FA02F243EB020008BF20F083
S2144028000100704702F1200201FA02FCC2F12002E8
S21440281050EA4C0021FA02F243EB020008BF20EADD
S214402820DC70704770B50F4E0F4D761BB61018BF54
S214402830002405D0013455F8043B9847A642F9D108
S2144028400A4E0B4D761B00F095F9B61018BF0024C3
S21440285006D0013455F8043B9847A642F9D170BDDE
S21440286070BD00BF802B4000802B4000882B40006E
S214402870802B4000024B13B1024800F005B8704769
S2144028800000000095284000002301461A461846DE
S21440289000F01EB838B50A4C0A4D641BA4100AD086
S2144028A004F18043013B05EB8305013C55F80439B0
S2144028B09847002CF9D1BDE8384000F065B900BF14
S2144028C0982B4000942B4000704700BF704700BFD5
S2144028D02DE9F8432C4D0646286898460F46914603
S2144028E0FFF7F2FF294B1C68D4F84831002B3ED046
S2144028F05A681F2A1CDC02F1010E76B103EB8201F6
S2144029000124C1F88890D3F8880194402043022ED1
S214402910C3F88801C1F8088123D00232C3F804E026
S214402920286843F82270FFF7D1FF0020BDE8F883FF
S214402930174B0BB34FF4C870AFF300800346D8B1C3
S214402940D4F848210260002141600A46C4F8480194
S2144029504FF0010EC0F88811C0F88C11002EDCD064
S214402960CCE7D3F88C110C43C3F88C41D5E704F57B
S214402970A673C4F84831BBE72868FFF7A7FF4FF0B7
S214402980FF30BDE8F88300BF30040020702B4000C5
S21440299000000000FB21F93FFB2109407CD9124092
S2144029A0FB2119407A6A1F407CD92240BBFD254056
S2144029B0FB2129403A462C407A6A2F405C473140FA
S2144029C07CD932409C6B3440BBFD3540DB8F374072
S2144029D0FB2139401BB43A403A463C405AD83D4029
S2144029E07A6A3F404C7E40405C4741406C104240D3
S2144029F07CD942408CA243409C6B4440AC3445401A
S214402A00BBFD4540CBC64640DB8F4740EB58484071
S214402A10FB21494083F9A200444E6E00FC29150074
S214402A20D1572700DD34F50062DBC0003C999500A5
S214402A30419043006351FE00BBDEAB00B761C5006A
S214402A403A6E2400D24D42004906E00009EA2E00C4
S214402A501C92D100EB1DFE0029B11C00E83EA700E9
S214402A60F535820044BB2E009CE98400B4267000F5
S214402A70417E5F00D6913900538339009CF439007B
S214402A808B5F840028F9BD00F81F3B00DEFF9700EF
S214402A900F980500112FEF000A5A8B006D1F6D002E
S214402AA0CF7E360009CB2700464FB7009E663F00D4
S214402AB02DEA5F00BA277500E5EBC7003D7BF100C5
S214402AC0F739070092528A00FB6BEA001FB15F009D
S214402AD0085D8D00300356007BFC4600F0AB6B0073
S214402AE020BCCF0036F49A00E3A91D005E61910039
S214402AF0081BE60085996500A0145F008D406800BD
S214402B0080D8FF0027734D0006063100CA561500D0
S214402B10C9A873007BE260006B8CC0000000000018
S214402B2000000040FB21F93F000000002D44743EA9
S214402B30000000809846F83C0000006051CC783B8E
S214402B4000000080831BF0390000004020257A38C2
S214402B50000000802282E336000000001DF3693545
S214402B600200000003000000040000000600000011
S214402B7008000020F8B500BFF8BC08BC9E46704769
S214402B80752840001D014000F8B500BFF8BC08BCE1
S20C402B909E467047F900400024
S214402B9800093D000000000000000000F40200208C
S214402BA85C030020C4030020000000000000000072
S214402BB800000000000000000000000000000000C8
S214402BC800000000000000000000000000000000B8
S214402BD800000000000000000000000000000000A8
S214402BE80000000000000000000000000000000098
S214402BF80000000000000000000000000000000088
S214402C080000000000000000000000000000000077
S214402C180000000000000000000000000000000067
S214402C280000000000000000000000000000000057
S214402C380000000000000000000000000000000047
S214402C4801000000000000000E33CDAB34126DE6E4
S214402C58ECDE05000B00000000000000000000004D
S214402C680000000000000000000000000000000017
S214402C780000000000000000000000000000000007
S214402C8800000000000000000000000000000000F7
S214402C9800000000000000000000000000000000E7
S208402FC8D04200208E
S804400000BB
